{
  "contractName": "INeedAHero",
  "abi": [
    {
      "constant": true,
      "inputs": [
        {
          "name": "",
          "type": "bytes32"
        }
      ],
      "name": "people",
      "outputs": [
        {
          "name": "id",
          "type": "bytes32"
        },
        {
          "name": "account",
          "type": "address"
        },
        {
          "name": "lat",
          "type": "int256"
        },
        {
          "name": "lon",
          "type": "int256"
        }
      ],
      "payable": false,
      "stateMutability": "view",
      "type": "function"
    },
    {
      "constant": true,
      "inputs": [
        {
          "name": "",
          "type": "bytes32"
        },
        {
          "name": "",
          "type": "bytes32"
        }
      ],
      "name": "matches",
      "outputs": [
        {
          "name": "",
          "type": "bool"
        }
      ],
      "payable": false,
      "stateMutability": "view",
      "type": "function"
    },
    {
      "constant": false,
      "inputs": [
        {
          "name": "_id",
          "type": "bytes32"
        },
        {
          "name": "_lat",
          "type": "int256"
        },
        {
          "name": "_lon",
          "type": "int256"
        }
      ],
      "name": "setGps",
      "outputs": [],
      "payable": false,
      "stateMutability": "nonpayable",
      "type": "function"
    },
    {
      "constant": true,
      "inputs": [
        {
          "name": "_id",
          "type": "bytes32"
        }
      ],
      "name": "getGps",
      "outputs": [
        {
          "name": "_lat",
          "type": "int256"
        },
        {
          "name": "_lon",
          "type": "int256"
        }
      ],
      "payable": false,
      "stateMutability": "view",
      "type": "function"
    },
    {
      "constant": false,
      "inputs": [
        {
          "name": "_id1",
          "type": "bytes32"
        },
        {
          "name": "_id2",
          "type": "bytes32"
        }
      ],
      "name": "changeMatch",
      "outputs": [],
      "payable": false,
      "stateMutability": "nonpayable",
      "type": "function"
    }
  ],
  "bytecode": "0x608060405234801561001057600080fd5b506104cf806100206000396000f30060806040526004361061006d576000357c0100000000000000000000000000000000000000000000000000000000900463ffffffff1680630d4bfe0b146100725780638eb244b8146100b1578063a97c4ce3146100f6578063dc58189314610142578063fe6f2a60146101d0575b600080fd5b34801561007e57600080fd5b506100af60048036038101908080356000191690602001909291908035600019169060200190929190505050610227565b005b3480156100bd57600080fd5b506100f460048036038101908080356000191690602001909291908035906020019092919080359060200190929190505050610311565b005b34801561010257600080fd5b5061012560048036038101908080356000191690602001909291905050506103dc565b604051808381526020018281526020019250505060405180910390f35b34801561014e57600080fd5b506101716004803603810190808035600019169060200190929190505050610424565b6040518085600019166000191681526020018473ffffffffffffffffffffffffffffffffffffffff1673ffffffffffffffffffffffffffffffffffffffff16815260200183815260200182815260200194505050505060405180910390f35b3480156101dc57600080fd5b5061020d60048036038101908080356000191690602001909291908035600019169060200190929190505050610474565b604051808215151515815260200191505060405180910390f35b6001600083600019166000191681526020019081526020016000206000826000191660001916815260200190815260200160002060009054906101000a900460ff16156102c05760006001600084600019166000191681526020019081526020016000206000836000191660001916815260200190815260200160002060006101000a81548160ff02191690831515021790555061030d565b600180600084600019166000191681526020019081526020016000206000836000191660001916815260200190815260200160002060006101000a81548160ff0219169083151502179055505b5050565b33600080856000191660001916815260200190815260200160002060010160006101000a81548173ffffffffffffffffffffffffffffffffffffffff021916908373ffffffffffffffffffffffffffffffffffffffff16021790555082600080856000191660001916815260200190815260200160002060000181600019169055508160008085600019166000191681526020019081526020016000206002018190555080600080856000191660001916815260200190815260200160002060030181905550505050565b60008060008084600019166000191681526020019081526020016000206002015491506000808460001916600019168152602001908152602001600020600301549050915091565b60006020528060005260406000206000915090508060000154908060010160009054906101000a900473ffffffffffffffffffffffffffffffffffffffff16908060020154908060030154905084565b60016020528160005260406000206020528060005260406000206000915091509054906101000a900460ff16815600a165627a7a7230582008901ee4faf5d607bc81d8991f6772aecfe157a9a62b5aa11477b435515b54640029",
  "source": "pragma solidity ^0.4.20;\n\ncontract INeedAHero {\n    struct person {\n        bytes32 id;\n        address account;\n        int lat;\n        int lon;\n    }\n\n    mapping (bytes32 => person) public people;\n    mapping (bytes32 => mapping (bytes32 => bool)) public matches;\n\n    function setGps(bytes32 _id, int _lat, int _lon) public {\n        people[_id].account = msg.sender;\n        people[_id].id = _id;\n        people[_id].lat = _lat;\n        people[_id].lon = _lon;\n    }\n\n    function getGps(bytes32 _id) public view returns(int _lat, int _lon) {\n        _lat = people[_id].lat;\n        _lon = people[_id].lon;\n    }\n\n    function changeMatch (bytes32 _id1, bytes32 _id2) public {\n        if(matches[_id1][_id2]) {\n            matches[_id1][_id2] = false;\n        }\n        else{\n            matches[_id1][_id2] = true;\n        }\n    }\n}\n",
  "sourcePath": "/home/alfonso/Documents/hackupc2018/webpack/contracts/INeedAHero.sol",
  "compiler": {
    "name": "solc",
    "version": "0.4.24+commit.e67f0147.Emscripten.clang"
  },
  "schemaVersion": "2.0.1",
  "updatedAt": "2018-10-20T10:02:22.763Z"
}