{
  "contractName": "INeedAHero",
  "abi": [
    {
      "constant": true,
      "inputs": [
        {
          "name": "",
          "type": "bytes32"
        }
      ],
      "name": "people",
      "outputs": [
        {
          "name": "id",
          "type": "bytes32"
        },
        {
          "name": "account",
          "type": "address"
        },
        {
          "name": "lat",
          "type": "int256"
        },
        {
          "name": "lon",
          "type": "int256"
        },
        {
          "name": "accuracy",
          "type": "uint256"
        },
        {
          "name": "volunteer",
          "type": "bool"
        }
      ],
      "payable": false,
      "stateMutability": "view",
      "type": "function"
    },
    {
      "constant": true,
      "inputs": [
        {
          "name": "",
          "type": "bytes32"
        },
        {
          "name": "",
          "type": "bytes32"
        }
      ],
      "name": "matches",
      "outputs": [
        {
          "name": "",
          "type": "bool"
        }
      ],
      "payable": false,
      "stateMutability": "view",
      "type": "function"
    },
    {
      "anonymous": false,
      "inputs": [
        {
          "indexed": true,
          "name": "_id",
          "type": "bytes32"
        },
        {
          "indexed": false,
          "name": "_lat",
          "type": "int256"
        },
        {
          "indexed": false,
          "name": "_lon",
          "type": "int256"
        }
      ],
      "name": "Alert",
      "type": "event"
    },
    {
      "constant": false,
      "inputs": [
        {
          "name": "_id",
          "type": "bytes32"
        },
        {
          "name": "_lat",
          "type": "int256"
        },
        {
          "name": "_lon",
          "type": "int256"
        },
        {
          "name": "_accuracy",
          "type": "uint256"
        }
      ],
      "name": "needHelp",
      "outputs": [],
      "payable": false,
      "stateMutability": "nonpayable",
      "type": "function"
    },
    {
      "constant": true,
      "inputs": [
        {
          "name": "_id",
          "type": "bytes32"
        }
      ],
      "name": "getGps",
      "outputs": [
        {
          "name": "_lat",
          "type": "int256"
        },
        {
          "name": "_lon",
          "type": "int256"
        }
      ],
      "payable": false,
      "stateMutability": "view",
      "type": "function"
    },
    {
      "constant": false,
      "inputs": [
        {
          "name": "_id1",
          "type": "bytes32"
        },
        {
          "name": "_id2",
          "type": "bytes32"
        }
      ],
      "name": "changeMatch",
      "outputs": [],
      "payable": false,
      "stateMutability": "nonpayable",
      "type": "function"
    }
  ],
  "bytecode": "0x608060405234801561001057600080fd5b5061056b806100206000396000f30060806040526004361061006d576000357c0100000000000000000000000000000000000000000000000000000000900463ffffffff1680630d4bfe0b14610072578063a903dd64146100b1578063a97c4ce314610100578063dc5818931461014c578063fe6f2a60146101ec575b600080fd5b34801561007e57600080fd5b506100af60048036038101908080356000191690602001909291908035600019169060200190929190505050610243565b005b3480156100bd57600080fd5b506100fe600480360381019080803560001916906020019092919080359060200190929190803590602001909291908035906020019092919050505061032d565b005b34801561010c57600080fd5b5061012f600480360381019080803560001916906020019092919050505061045f565b604051808381526020018281526020019250505060405180910390f35b34801561015857600080fd5b5061017b60048036038101908080356000191690602001909291905050506104a7565b6040518087600019166000191681526020018673ffffffffffffffffffffffffffffffffffffffff1673ffffffffffffffffffffffffffffffffffffffff16815260200185815260200184815260200183815260200182151515158152602001965050505050505060405180910390f35b3480156101f857600080fd5b5061022960048036038101908080356000191690602001909291908035600019169060200190929190505050610510565b604051808215151515815260200191505060405180910390f35b6001600083600019166000191681526020019081526020016000206000826000191660001916815260200190815260200160002060009054906101000a900460ff16156102dc5760006001600084600019166000191681526020019081526020016000206000836000191660001916815260200190815260200160002060006101000a81548160ff021916908315150217905550610329565b600180600084600019166000191681526020019081526020016000206000836000191660001916815260200190815260200160002060006101000a81548160ff0219169083151502179055505b5050565b33600080866000191660001916815260200190815260200160002060010160006101000a81548173ffffffffffffffffffffffffffffffffffffffff021916908373ffffffffffffffffffffffffffffffffffffffff160217905550836000808660001916600019168152602001908152602001600020600001816000191690555082600080866000191660001916815260200190815260200160002060020181905550816000808660001916600019168152602001908152602001600020600301819055508060008086600019166000191681526020019081526020016000206004018190555083600019167f1bca5cfe7fc4a41631b0f3411bad3fe1e6db50dbb133b2b0035d5b6b71c370118484604051808381526020018281526020019250505060405180910390a250505050565b60008060008084600019166000191681526020019081526020016000206002015491506000808460001916600019168152602001908152602001600020600301549050915091565b60006020528060005260406000206000915090508060000154908060010160009054906101000a900473ffffffffffffffffffffffffffffffffffffffff16908060020154908060030154908060040154908060050160009054906101000a900460ff16905086565b60016020528160005260406000206020528060005260406000206000915091509054906101000a900460ff16815600a165627a7a72305820cd039d523519e36393291b1ddb781fa8df028daab04c1ed9707b662d05d471300029",
  "source": "pragma solidity ^0.4.20;\n\ncontract INeedAHero {\n    struct person {\n        bytes32 id;\n        address account;\n        int lat;\n        int lon;\n        uint accuracy;\n        bool volunteer;\n    }\n\n    event Alert(bytes32 indexed _id, int _lat, int _lon);\n\n\n    mapping (bytes32 => person) public people;\n    mapping (bytes32 => mapping (bytes32 => bool)) public matches;\n\n    function needHelp(bytes32 _id, int _lat, int _lon, uint _accuracy) public {\n        people[_id].account = msg.sender;\n        people[_id].id = _id;\n        people[_id].lat = _lat;\n        people[_id].lon = _lon;\n        people[_id].accuracy = _accuracy;\n        emit Alert(_id, _lat, _lon);\n    }\n\n    function getGps(bytes32 _id) public view returns(int _lat, int _lon) {\n        _lat = people[_id].lat;\n        _lon = people[_id].lon;\n    }\n\n    function changeMatch (bytes32 _id1, bytes32 _id2) public {\n        if(matches[_id1][_id2]) {\n            matches[_id1][_id2] = false;\n        }\n        else{\n            matches[_id1][_id2] = true;\n        }\n    }\n}\n",
  "sourcePath": "/home/alfonso/Documents/hackupc2018/webpack/contracts/INeedAHero.sol",
  "compiler": {
    "name": "solc",
    "version": "0.4.24+commit.e67f0147.Emscripten.clang"
  },
  "schemaVersion": "2.0.1",
  "updatedAt": "2018-10-20T12:55:37.003Z"
}